:1000000012C02CC02BC02AC029C028C0C2C026C024
:1000100025C024C023C069C195C120C01FC01EC017
:100020001DC01CC01BC011241FBECFE5D4E0DEBF25
:10003000CDBF10E0A0E6B0E0E0E2F5E002C0059040
:100040000D92AA36B107D9F710E0AAE6B0E001C0D8
:100050001D92AD3EB107E1F70ED160C2D1CFFF9244
:100060000F931F93CF93DF9300D000D00F92CDB7A3
:10007000DEB7482FFE01319685E0DF011D928A959B
:10008000E9F78F9A979A8FEF9FE5A3E08150904010
:10009000A040E1F700C000009798A6E6B2EC1197E7
:1000A000F1F70000979AB4E0BA95F1F78F9880E9DC
:1000B0008A95F1F7879955C0ADEDB0E01197F1F74A
:1000C000879B51C08DED90E00197F1F7FE013196CD
:1000D0008E010A5F1F4FA7E0B0E0FF2461E070E0EF
:1000E0001CC0879BFECF9EE69A95F1F700C0879BC8
:1000F00008C0CB01022E02C0880F991F0A94E2F7B4
:10010000582B8799FECF215030408FEF2F3F380773
:1001100041F75193E017F10719F09D015F2DE1CFF1
:100120008F9A979A8FEF9FE5A3E081509040A0406F
:10013000E1F700C0000099818B816A8170E0690F4E
:10014000711D680F711D2C81620F711D2D8130E0B2
:100150006217730751F4442359F0413041F08FEF97
:1001600007C08FEF05C08FEF03C08FEF01C0892F4D
:100170000F900F900F900F900F90DF91CF911F91E4
:100180000F91FF90089580E06ADF089581E067DFB6
:1001900008951F920F920FB60F9211242F933F9341
:1001A0004F935F936F937F938F939F93AF93BF937F
:1001B000CF93DF93EF93FF93E6DF80936B00E6DF4F
:1001C00080936A0080E690E023D180916B00CFECB1
:1001D000D0E0992787FD9095BE014AE050E06FD1AD
:1001E000CE0116D183E690E013D180916A00992761
:1001F00087FD9095BE014AE050E061D1CE0108D163
:1002000086E690E005D1FF91EF91DF91CF91BF910C
:10021000AF919F918F917F916F915F914F913F919E
:100220002F910F900FBE0F901F9018958EB58D6077
:100230008EBD1DBC1CBC80E39AE29BBD8ABD89B704
:10024000806189BF089595B321E030E002C0220F9C
:10025000331F8A95E2F7922B95BB8FEF9FEDA0E1BC
:1002600081509040A040E1F700C0000085B3209588
:10027000282325BB08958FE184BB15BA85E090E063
:1002800087D0D4DF7894EE24FF240F2EF1EBCF2E0D
:10029000F0E0DF2EF02D0F2EF2EBAF2EF0E0BF2EB0
:1002A000F02DD5D0C82FD92FC330D105D0F3870179
:1002B0000D3111052CF480D0F801EF54FF4F8083ED
:1002C0000F5F1F4FC017D10798F7CDD0F60180817F
:1002D000843439F7F50180818A3319F7E3EBF0E0D4
:1002E000808190E0C097AFDFDCCF1F920F920FB6F6
:1002F0000F9211242F933F938F939F93EF93FF932C
:100300003BB12CB180916E008F5F8F7190916D0029
:10031000891751F0932F987180936E00E1E7F0E018
:10032000E80FF11D208301C092E090936C00FF91D3
:10033000EF919F918F913F912F910F900FBE0F9052
:100340001F9018951F920F920FB60F9211248F9342
:100350009F93EF93FF939091700080916F00981797
:1003600069F080916F008F5F8F7180936F00E1E97A
:10037000F0E0E80FF11D80818CB901C05598FF9124
:10038000EF919F918F910F900FBE0F901F90189536
:100390001092700010926F0010926E0010926D001B
:1003A00099231CF422E02BB99F7790BD89B988E985
:1003B0008AB986E880BD089590916E0080916D00A5
:1003C000981791F080916D008F5F8F7180936D0011
:1003D000E1E7F0E0E80FF11D208130916C00932FF0
:1003E00080E0820F911D089580E091E008952091B2
:1003F00070002F5F2F7190916F002917E1F3E1E9F1
:10040000F0E0E20FF11D808320937000559A08956B
:10041000CF93DF93EC018881882329F02196E7DFD1
:1004200089918823E1F7DF91CF910895CF93DF93EE
:10043000EC01FC018491882339F02196D8DFFE017C
:10044000219684918823D1F7DF91CF9108958091EF
:100450006E0020916D0090E04F96821B91096FE134
:1004600070E006D0089580916D0080936E0008952D
:1004700097FB092E07260AD077FD04D00CD006D0B2
:1004800000201AF4709561957F4F0895F6F79095C6
:1004900081959F4F0895AA1BBB1B51E107C0AA1F5E
:1004A000BB1FA617B70710F0A61BB70B881F991F15
:1004B0005A95A9F780959095BC01CD010895FB014F
:1004C0009F01E8944230BCF04532ACF44A3029F444
:1004D00097FB1EF4909581959F4F642F7727DBDF64
:1004E000805D8A330CF0895D8193CB010097A9F779
:1004F00016F45DE251931082C90100C0DC01FC01D9
:10050000672F71917723E1F7329704C07C916D9347
:1005100070836291AE17BF07C8F30895F894FFCFB8
:0A052000543A00483A000D0A0000AA
:00000001FF
